:020000040000FA
:060000000A128A110C280F
:10000800FE00030EF1000A08F2000A128A156C2E8F
:100018000A128A110F280A128A11FF240A128A1159
:10002800EA008313463084006A300A128A15D22502
:100038000A128A11F801F901FA0183010A128A11D8
:10004800452EFF0000308A007F0882072A280A12FE
:100058008A150C2E0A128A152C2E0A128A154C2E75
:1000680083120313B9002B30B1003108B400BD2945
:1000780025303C060319412842284E283C08B10087
:10008800390884003108831380000130B100310839
:10009800B907BD29BA01BB01B50159283515013089
:1000A800A9070318AA0A0030AA072A08FF00290886
:1000B80084000A128A1100250A128A11303A03199B
:1000C800522866282A08FF00290884000A128A1183
:1000D80000250A128A110A128A15E5250A128A11C0
:1000E800031C77287828C42883120313BA01BB019C
:1000F8000A30F3000030F400831203133B08F600C3
:100108003A08F5000A128A1596260A128A11740806
:1001180083120313BB007308BA002A08FF002908DA
:1001280084000A128A1100250A128A11D03EB100F1
:10013800FF3003180030B2003108BA070318BB0AB1
:100148003208BB070130A9070318AA0A0030AA071A
:100158002A08FF00290884000A128A1100250A12B9
:100168008A110A128A15E5250A128A110318BD2870
:10017800BE287C28C428C030B1003108B504DE2868
:10018800831203132A08B2002908B100A90A031927
:10019800AA0A3208FF00310884000A128A110025D1
:1001A8000A128A11BC00003A0319D529753A0319B5
:1001B800BF28BD293408840083130008B600840AC8
:1001C8000008B7000230B1003108B407BC01BC0A0E
:1001D8003C08B1003107663E840085300318013EB3
:1001E800FF000A128A1100250A128A11B2000A12A7
:1001F8008A1100250A128A11B30033083702031D39
:1002080007293208360203180A290B290C2916294E
:100218000130B1003108BC0705303C06031D152923
:100228001629EC283B08803A803C031D1D293A0812
:100238003C020318202921292D29831203133C0885
:10024800B100B2013108BA023208031CBB03BB0279
:10025800312983120313BA01BB01351D342935290D
:1002680053293A083B0403193A293B2970293030AD
:10027800B100390884003108831380000130B100CF
:100288003108B907FF30BA070318BB0AFF30BB07AC
:100298003A083B04031D512952293B2970293A0881
:1002A8003B0403195829592970292030B10039080D
:1002B80084003108831380000130B1003108B90788
:1002C800FF30BA070318BB0AFF30BB073A083B04E4
:1002D800031D6F29702959293C08B1003108B8005D
:1002E800B4290A30A3000030A4003808B10031074F
:1002F800663E840085300318013EFF000A128A1109
:1003080000250A128A11F3000A128A1100250A121E
:100318008A11F4003708F6003608F5000A128A1523
:10032800BA270A128A11740883120313A6007308E5
:10033800A5000A128A15C1260A128A11831203130C
:100348002308303EB2003208BC003C08B10039082E
:1003580084003108831380000130B1003108B907E7
:10036800FF30B1003108B807380A031DBC29BD2980
:1003780075292A08B2002908B100A90A0319AA0A8E
:100388003208FF00310884000A128A1100250A1277
:100398008A11B3003308BC003C08031DD429D529B1
:1003A8003C28390884008313800108008312031352
:1003B800A601A701A501FB290730A2002208F30026
:1003C80027080A128A15F7250A128A11023E123ED8
:1003D800840085300318013E83120313FF000A12BC
:1003E8008A1100250A128A11A3002308A7072708E3
:1003F80055020318002A012AE0290730A200220822
:10040800F30055080A128A15F7250A128A11023EC6
:10041800123E840085300318013E83120313FF0047
:100428000A128A1100250A128A112702A30023083A
:10043800A8000130A7022808A2002208A500280861
:10044800013EA200003003180130A3002308803ABF
:10045800803C031D312A22085502031C342A352A00
:10046800A42A831203132708FF3EA200FF300318B3
:100478000030A3002308803AA40080302402031D22
:10048800472A55082202031C4A2A4B2AA42A831207
:1004980003135508FF3EA2002208A8002808013EC1
:1004A800A2002208A700912A26080A128A11752795
:1004B8000A128A11073083120313A2002208F300DC
:1004C80028080A128A15F7250A128A11123E840092
:1004D80085300318013E83120313FF000A128A11A4
:1004E80000250A128A11A3000A128A1100250A128D
:1004F8008A11A4002308A0002408A1000A128A1166
:10050800D8270A128A11013083120313A200220885
:10051800A6070130A2002208A80728082702031806
:10052800962A972A582A01300A128A1175270A1220
:100538008A117E300A128A153B270A128A11652B06
:10054800831203132808013EA2000030031801306B
:10055800A3002308803A803C031DB42A22085502D0
:100568000318B72AB82A0C2B831203132808013E54
:10057800A2002208A700F92A26080A128A1175275C
:100588000A128A11073083120313A2002208F3000B
:1005980028080A128A15F7250A128A11123E8400C1
:1005A80085300318013E83120313FF000A128A11D3
:1005B80000250A128A11A3000A128A1100250A12BC
:1005C8008A11A4002308A0002408A1000A128A1195
:1005D800D8270A128A11013083120313A2002208B5
:1005E800A6070130A2002208A80728082702031836
:1005F800FE2AFF2AC02A250855020A128A117527E1
:100608000A128A117E300A128A153B270A128A11A9
:100618008312031355082706031D132B142B652B70
:100628002708FF3EA2002208A800532B26080A121A
:100638008A1175270A128A11073083120313A20040
:100648002208F30028080A128A15F7250A128A11C7
:10065800123E840085300318013E83120313FF0005
:100668000A128A1100250A128A11A3000A128A1195
:1006780000250A128A11A4002308A0002408A1005A
:100688000A128A11D8270A128A1101308312031319
:10069800A2002208A6070130A2002208A8072808FD
:1006A80027020318582B592B1A2B01300A128A11CA
:1006B80075270A128A117E300A128A153B270A12F8
:1006C8008A110800B82C0130C6070318C70A003081
:1006D800C70701304702F43003194602031C752B83
:1006E800762BAC2B01300A128A1175270A128A114F
:1006F800003083120313A9008630AA006A08BD00DF
:10070800BE013D08AB003E08AC004F08BF00C00169
:100718003F08AD004008AE004E08C100C2014108C4
:10072800AF004208B00056300A128A1134200A126B
:100738008A11563083120313A0000030A1000A1258
:100748008A11D8270A128A1183120313C601C70116
:100758005003031DB02BB12BC52CD001D201D20AF6
:1007680001300A128A15FD260A128A110A128A1104
:10077800DA210A128A1183120313C601C701C52C94
:100788005108031DC82BC92BCE2B50080319CD2B9C
:10079800CE2BC52C5103031DD22BD32BEE2B0730A8
:1007A800BD003D08F30055080A128A15F7250A12FC
:1007B8008A11033E123E840085300318013E8312DD
:1007C8000313FF000A128A1100250A128A11BE00BB
:1007D8003E08D50002305106031DF32BF42B0F2CD5
:1007E8000730BD003D08F30055080A128A15F725A1
:1007F8000A128A11043E123E840085300318013E15
:1008080083120313FF000A128A1100250A128A11A3
:10081800BE003E08D50050080319132C142C6A2C6E
:100828000730BD003D08F30055080A128A15F72560
:100838000A128A11063E123E840085300318013ED2
:1008480083120313FF000A128A1100250A128A1163
:10085800003A0319302C312C4F2C0730BD003D08CD
:10086800F30055080A128A15F7250A128A11063E5E
:10087800123E840085300318013E83120313FF00E3
:100888000A128A1100250A128A110A128A112520D1
:100898000A128A116A2C0730BD003D08F30055087A
:1008A8000A128A15F7250A128A11053E123E84009B
:1008B80085300318013E83120313FF000A128A11C0
:1008C80000250A128A11BE003E08D50083120313C0
:1008D800C601C7010230BD003D08D2000A128A11C4
:1008E800DA210A128A11C52C0130C6070318C70A73
:1008F8000030C70700304702653003194602031C61
:10090800862C872CC52C0608BD003D08D1000B108D
:100918008B15D10150080319922C932CB52CD001BA
:1009280002305506031D992C9A2CB52C01300A1259
:100938008A15FD260A128A11143083120313A000A7
:100948008630A1000A128A11D8270A128A110130AA
:100958000A128A1175270A128A1183120313D20107
:10096800BF2BD201D20AC52C831203135208003AB6
:100978000319672B013A0319C42B033A0319782C7E
:10098800C52C0800F42C7808013EF80079080318F3
:10099800013E003EF900F4307806031DD72C790398
:1009A800031DD72CD82CFE2CF801F9010915D40108
:1009B800D40AFE2C7808013EF80079080318013E95
:1009C800003EF900F4307806031DEE2C7903031D70
:1009D800EE2CEF2CFE2CF801F9010911D401FE2CA4
:1009E800831203135408003A0319C72C013A031958
:1009F800DE2CFE2C08000C34FF1B0A2D83137F18F5
:100A080083170008840A0319FF0A08007F087F3942
:100A18008A000408840A0319FF0A8200F434853422
:100A280003340034013403340034E83485340334A7
:100A38000034023407340034DC34853403340134A0
:100A4800023402340034D03485340434033404349A
:100A580004340434C434853404340334053405348C
:100A68000734B83485340434043406340634013485
:100A7800AC34853404340534063400340034A034EE
:100A88008534053407340834083404349434853400
:100A9800053407340934093404348834853405347A
:100AA80008340A340A3404347C348534053409346F
:100AB8000B340B3404347034853405340A340B3465
:100AC80001340034013400340A340034643400340E
:100AD800E834033410342734203420344134743457
:100AE8007234613473342034203420342034003498
:100AF800203420344F347034633469346F346E34A6
:100B08002034373420340034203420344F347034C7
:100B1800633469346F346E3420343634203400340E
:100B2800203420344F347034633469346F346E3475
:100B38002034353420340034203420344F34703499
:100B4800633469346F346E342034343420340034E0
:100B58002034203441347434723461347334203492
:100B68002034203420340034203420344F3470347E
:100B7800633469346F346E342034333420340034B1
:100B8800203420344F347034633469346F346E3415
:100B98002034323420340034203420344F3470343C
:100BA800633469346F346E34203431342034003483
:100BB80020342034533441344C34493452342034B2
:100BC8002034203420340034203420344D3445344B
:100BD8004E34553420344234203420342034003408
:100BE800203420344D3445344E3455342034413487
:100BF80020342034203400342034203420345B3432
:100C080025343034323475343A342534303432347F
:100C180075343A3425343034323475345D34003424
:100C280020344C342E3443342E3444342E3420347F
:100C38005034493443343134363446342034003463
:100C48002034463475346E34633469346F346E340A
:100C58002034313400342034463475346E346334EF
:100C680069346F346E3420343234003420344634DE
:100C780075346E34633469346F346E3420343334ED
:100C880000340A128A15DA250A128A118316031704
:100C980088018901831603130911831203130911AB
:100CA800FF30831603138600811388018312031310
:100CB8008801D401D301D201063083120313C50081
:100CC8001330C400AD30C300C30B682EC40B682EAC
:100CD800C50B682E28300A128A11DE260A128A11DC
:100CE800143083120313A0008630A1000A128A115F
:100CF800D8270A128A1101300A128A1175270A1296
:100D08008A118316031396148B158B170A128A11EE
:100D1800C6240A128A110A128A1579270A128A1118
:100D28000A128A1166230A128A11831203134D08C4
:100D3800C4004C08C300CC0A0319CD0A033044028E
:100D4800DF3003194302031CAA2EAB2ED22ECC018E
:100D5800CD010130CE07FF304E07C3003C304302BF
:100D6800031CB72EB82ED22ECE010130CF07FF308C
:100D78004F07C3003C304302031CC32EC42ED22E9F
:100D8800CF010130EA07FF306A07C3001830430279
:100D9800031CCF2ED02ED22EEA01D22EC7308312BA
:100DA8000313C300D72EC30BD62EDA2E8A2E0A12AF
:100DB8008A110C2883120313A00008128812143019
:100DC800F7007930F600F60BE72EF70BE72EEC2E3E
:100DD800F030F6007608831603138805F030F60025
:100DE80076088312031388050330F6007608880412
:100DF800881600008312031388120730F7007D302D
:100E0800F600F60B052FF70B052FF030F6007608E5
:100E18008312031388050330F600760888048816C1
:100E28000000831203138812C730F6001B2FF60B3D
:100E38001A2F1E2F1F2FF030F60076088312031387
:100E480088050330F60076088804881600008312A7
:100E580003138812C730F600312FF60B302F342FCA
:100E6800352FF030F60076088312031388058814AE
:100E780088160000831203138812C730F600442F27
:100E8800F60B432F472F482F8312031320080A120B
:100E98008A15FD260A128A110B300A128A15FD26B8
:100EA8000A128A1101300A128A15FD260A128A11BD
:100EB8000C300A128A15FD260A128A1104300A1209
:100EC8008A15FD260A128A1106300A128A15FD268D
:100ED8000A128A1102300A128A15FD260A128A118C
:100EE8000800F600F701892FF701972F4030F3002B
:100EF8007308F700972F1430F3007308F700972F43
:100F08005430F3007308F700972F7608003A031956
:100F1800782F013A03197A2F033A03197F2F013AE0
:100F28000319842F972F0730F4007D30F300F30B5B
:100F38009B2FF40B9B2F831203130812F030F3003E
:100F48007308831603138805F030F30073088312BF
:100F58000313880580307704F3000030F400043070
:100F6800FF00740DF40CF30CFF0BB52F7308F5009C
:100F78007508880488160000831203138812F0305D
:100F8800F3007308880577080F39F300730888049D
:100F9800881600008312031388120F30F3007308B9
:100FA8008316031388040800EF2F2108FF00200888
:100FB80084000A128A1100250A128A110A128A1557
:100FC8003B270A128A11013083120313A007031862
:100FD800A10A0030A107831203132108FF0020088B
:100FE80084000A128A1100250A128A11003A031D88
:080FF800FE2FFF2FD92F080086
:101BA40064008001840A0406031900340406D32D5A
:101BB400831603130F088F3960388F000F1DE32D30
:101BC400E42DE02D0800F400F3013A307402031808
:101BD400EC2DED2DF52D30307402031CF22DF32D78
:101BE400F52DF301F30A730C0800F600F501761CD9
:101BF400FC2DFD2D012E7308F4007408F507031065
:101C0400F30D0310F60C7608031D092E0A2EF92D88
:101C14007508080001300A128A15FD260A128A1571
:101C24003A3083120313A0008630A1000A128A11ED
:101C3400D8270A128A15063083120313A40013301E
:101C4400A300AD30A200A20B252EA30B252EA40BBE
:101C5400252E080001300A128A15FD260A128A155B
:101C6400243083120313A0008630A1000A128A11C3
:101C7400D8270A128A15063083120313A4001330DE
:101C8400A300AD30A200A20B452EA30B452EA40B3E
:101C9400452E080001300A128A15FD260A128A15FB
:101CA4002F3083120313A0008630A1000A128A1178
:101CB400D8270A128A15063083120313A40013309E
:101CC400A300AD30A200A20B652EA30B652EA40BBE
:101CD400652E08000B1C6F2E702E8F2E8B1D732EFD
:101CE400742E8F2E83120313861C792E7A2E882E3F
:101CF400061D7D2E7E2E832E0130F0007008D1004B
:101D04008D2E0230F0007008D1008D2E061D8B2E12
:101D14008C2E7E2E832E8B110B1072088A00710E6E
:101D24008300FE0E7E0E090083120313A001A1019D
:101D3400731C9D2E9E2EA62E750883120313A007D6
:101D44000318A10A7608A10701300310F50DF60D5A
:101D5400FF3E031DA72E01300310F40CF30CFF3ECD
:101D6400031DAE2E73087404031DB92EBA2E9A2EC9
:101D7400831203132108F4002008F30008008312DF
:101D84000313230824040319C82EC92EF82EA8010E
:101D9400A80AD72E01300310A30DA40DFF3E031D86
:101DA400CD2E0130A7002708A807A41FDA2EDB2EAA
:101DB400CC2E24082602031DE12E23082502031C31
:101DC400E42EE52EEB2E2308A5022408031CA6030B
:101DD400A60201300310A40CA30CFF3E031DEC2E3D
:101DE4000130A802031DF72EF82EDB2E2608A400CE
:101DF4002508A3000800F5000730F4007D30F30047
:101E0400F30B022FF40B022F831203130812F0308A
:101E1400F3007308831603138805F030F300730886
:101E24008312031388057508F30004300310F30CC0
:101E3400FF3E031D182F7308F400740888048816E5
:101E440000008312031388120F30F300730888050F
:101E540075080F39F300730888048816000083128C
:101E6400031388120F30F3007308831603138804D6
:101E74000800F5000730F4007D30F300F30B402F29
:101E8400F40B402F831203130816F030F300730889
:101E9400831603138805F030F300730883120313C9
:101EA40088057508F30004300310F30CFF3E031D8E
:101EB400562F7308F40074088804881600008312EF
:101EC40003138812F030F3007308880575080F397E
:101ED400F300730888048816000083120313881221
:101EE4000F30F30073088316031388040800AF2F20
:101EF40006187D2F7E2F912F4808013EC8004908FF
:101F04000318013E003EC900003049026530031940
:101F14004802031C8E2F8F2FB92FD301D30AC80177
:101F2400C901B92F061C972F982F912F4808013EFD
:101F3400C80049080318013E003EC90000304902A8
:101F4400653003194802031CA82FA92FB92FD30108
:101F5400C801C901D001D00AB92F83120313530851
:101F6400003A03197A2F013A0319942FB92F080064
:101F740083120313A101A201730874040319C32F6C
:101F8400C42FFB2FA001A00AD22F01300310F30DA0
:101F9400F40DFF3E031DC82F0130F7007708A0079A
:101FA400F41FD52FD62FC72F01300310A10DA20D7A
:101FB400FF3E031DD72F74087602031DE32F730819
:101FC4007502031CE62FE72FEE2F7308F502740841
:101FD400031CF603F602211401300310F40CF30C75
:101FE400FF3E031DEF2F0130A002031DFA2FFB2F2C
:0C1FF400D62F2208F4002108F30008009A
:04400E00E4EFFFFFDD
:00000001FF
